{
  "address": "0x349094471A746FaF7A211E7eE62Ea29C23Ada148",
  "abi": [
    {
      "inputs": [],
      "stateMutability": "nonpayable",
      "type": "constructor"
    },
    {
      "anonymous": false,
      "inputs": [
        {
          "indexed": true,
          "internalType": "address",
          "name": "_from",
          "type": "address"
        },
        {
          "indexed": false,
          "internalType": "ctUint64[]",
          "name": "ctUserSomeEncryptedStringValue",
          "type": "uint256[]"
        }
      ],
      "name": "UserEncryptedStringValue",
      "type": "event"
    },
    {
      "anonymous": false,
      "inputs": [
        {
          "indexed": true,
          "internalType": "address",
          "name": "_from",
          "type": "address"
        },
        {
          "indexed": false,
          "internalType": "ctUint64",
          "name": "ctUserSomeEncryptedValue",
          "type": "uint256"
        }
      ],
      "name": "UserEncryptedValue",
      "type": "event"
    },
    {
      "inputs": [],
      "name": "add",
      "outputs": [],
      "stateMutability": "nonpayable",
      "type": "function"
    },
    {
      "inputs": [],
      "name": "getNetworkSomeEncryptedValue",
      "outputs": [
        {
          "internalType": "ctUint64",
          "name": "ctSomeEncryptedValue",
          "type": "uint256"
        }
      ],
      "stateMutability": "view",
      "type": "function"
    },
    {
      "inputs": [],
      "name": "getNetworkSomeEncryptedValueEncryptedInput",
      "outputs": [
        {
          "internalType": "ctUint64",
          "name": "ctSomeEncryptedValue",
          "type": "uint256"
        }
      ],
      "stateMutability": "view",
      "type": "function"
    },
    {
      "inputs": [],
      "name": "getSomeValue",
      "outputs": [
        {
          "internalType": "uint64",
          "name": "value",
          "type": "uint64"
        }
      ],
      "stateMutability": "view",
      "type": "function"
    },
    {
      "inputs": [],
      "name": "getUserArithmeticResult",
      "outputs": [
        {
          "internalType": "ctUint64",
          "name": "value",
          "type": "uint256"
        }
      ],
      "stateMutability": "view",
      "type": "function"
    },
    {
      "inputs": [],
      "name": "getUserSomeEncryptedStringEncryptedInput",
      "outputs": [
        {
          "internalType": "ctUint64[]",
          "name": "ctSomeEncryptedValue",
          "type": "uint256[]"
        }
      ],
      "stateMutability": "view",
      "type": "function"
    },
    {
      "inputs": [],
      "name": "getUserSomeEncryptedValue",
      "outputs": [
        {
          "internalType": "ctUint64",
          "name": "ctSomeEncryptedValue",
          "type": "uint256"
        }
      ],
      "stateMutability": "view",
      "type": "function"
    },
    {
      "inputs": [],
      "name": "getUserSomeEncryptedValueEncryptedInput",
      "outputs": [
        {
          "internalType": "ctUint64",
          "name": "ctSomeEncryptedValue",
          "type": "uint256"
        }
      ],
      "stateMutability": "view",
      "type": "function"
    },
    {
      "inputs": [
        {
          "internalType": "ctUint64",
          "name": "networkEncrypted",
          "type": "uint256"
        }
      ],
      "name": "setNetworkSomeEncryptedValue",
      "outputs": [],
      "stateMutability": "nonpayable",
      "type": "function"
    },
    {
      "inputs": [
        {
          "internalType": "ctUint64[]",
          "name": "_itInputString",
          "type": "uint256[]"
        },
        {
          "internalType": "bytes[]",
          "name": "_itSignature",
          "type": "bytes[]"
        }
      ],
      "name": "setSomeEncryptedStringEncryptedInput",
      "outputs": [],
      "stateMutability": "nonpayable",
      "type": "function"
    },
    {
      "inputs": [
        {
          "internalType": "uint64",
          "name": "_value",
          "type": "uint64"
        }
      ],
      "name": "setSomeEncryptedValue",
      "outputs": [],
      "stateMutability": "nonpayable",
      "type": "function"
    },
    {
      "inputs": [
        {
          "internalType": "ctUint64",
          "name": "_itCT",
          "type": "uint256"
        },
        {
          "internalType": "bytes",
          "name": "_itSignature",
          "type": "bytes"
        }
      ],
      "name": "setSomeEncryptedValueEncryptedInput",
      "outputs": [],
      "stateMutability": "nonpayable",
      "type": "function"
    },
    {
      "inputs": [],
      "name": "setUserSomeEncryptedStringEncryptedInput",
      "outputs": [],
      "stateMutability": "nonpayable",
      "type": "function"
    },
    {
      "inputs": [],
      "name": "setUserSomeEncryptedValue",
      "outputs": [],
      "stateMutability": "nonpayable",
      "type": "function"
    },
    {
      "inputs": [],
      "name": "setUserSomeEncryptedValueEncryptedInput",
      "outputs": [],
      "stateMutability": "nonpayable",
      "type": "function"
    }
  ],
  "transactionHash": "0x0afbe7434b3af70815d4dbd787c3965ac730f493f4c2a3f500aab36a20a3aa64",
  "args": [],
  "numDeployments": 1,
  "solcInputHash": "5bdb9be18cb09b78d9798d98c786f0ee",
  "bytecode": "0x608060405234801561001057600080fd5b5060056000806101000a81548167ffffffffffffffff021916908367ffffffffffffffff160217905550611657806100496000396000f3fe608060405234801561001057600080fd5b50600436106100f55760003560e01c80638d7eadec11610097578063a40674b711610066578063a40674b714610202578063af384ac714610220578063d7c496011461023c578063fee511d61461025a576100f5565b80638d7eadec146101a05780639c82c7c7146101be5780639f3f69de146101da578063a2e12869146101e4576100f5565b80634f0bc491116100d35780634f0bc491146101525780634f2be91f1461016e57806361eeffcd1461017857806371091de314610182576100f5565b806305bdf1db146100fa57806318312545146101185780633b580f3c14610136575b600080fd5b610102610264565b60405161010f9190610da2565b60405180910390f35b61012061026e565b60405161012d9190610da2565b60405180910390f35b610150600480360381019061014b9190610e82565b610278565b005b61016c60048036038101906101679190610f85565b61046f565b005b6101766104f1565b005b610180610532565b005b61018a6105a4565b6040516101979190610da2565b60405180910390f35b6101a86105ae565b6040516101b59190610da2565b60405180910390f35b6101d860048036038101906101d39190610fe5565b6105b8565b005b6101e26105c2565b005b6101ec610789565b6040516101f99190610da2565b60405180910390f35b61020a610793565b6040516102179190611035565b60405180910390f35b61023a6004803603810190610235919061107c565b6107b0565b005b6102446107d0565b6040516102519190611167565b60405180910390f35b610262610828565b005b6000600354905090565b6000600154905090565b60008484905067ffffffffffffffff81111561029757610296611189565b5b6040519080825280602002602001820160405280156102c55781602001602082028036833780820191505090505b5090506102d0610cd9565b60005b868690508110156103a4578686828181106102f1576102f06111b8565b5b90506020020135826000018181525050848482818110610314576103136111b8565b5b905060200281019061032691906111f6565b8080601f016020809104026020016040519081016040528093929190818152602001838380828437600081840152601f19601f82011690508083019250505050505050826020018190525061037a8261089a565b83828151811061038d5761038c6111b8565b5b6020026020010181815250508060010190506102d3565b5060008686905067ffffffffffffffff8111156103c4576103c3611189565b5b6040519080825280602002602001820160405280156103f25781602001602082028036833780820191505090505b50905060005b835181101561044e57610424848281518110610417576104166111b8565b5b6020026020010151610941565b828281518110610437576104366111b8565b5b6020026020010181815250508060010190506103f8565b508060079080519060200190610465929190610cf3565b5050505050505050565b610477610cd9565b8381600001818152505082828080601f016020809104026020016040519081016040528093929190818152602001838380828437600081840152601f19601f82011690508083019250505050505050816020018190525060006104d98261089a565b90506104e481610941565b6004819055505050505050565b60006104fe6003546109de565b9050600061050d6004546109de565b9050600061051b8383610a7b565b90506105278133610b12565b600581905550505050565b600061053f6004546109de565b905061054b8133610b12565b6002819055503373ffffffffffffffffffffffffffffffffffffffff167f958094500e56c659b01cdefb25c66c88f025c3c800f69b2a2141f8c73b30e0566002546040516105999190610da2565b60405180910390a250565b6000600454905090565b6000600554905090565b8060038190555050565b600060078054905067ffffffffffffffff8111156105e3576105e2611189565b5b6040519080825280602002602001820160405280156106115781602001602082028036833780820191505090505b50905060005b6007805490508110156106755761064b6007828154811061063b5761063a6111b8565b5b90600052602060002001546109de565b82828151811061065e5761065d6111b8565b5b602002602001018181525050806001019050610617565b506000815167ffffffffffffffff81111561069357610692611189565b5b6040519080825280602002602001820160405280156106c15781602001602082028036833780820191505090505b50905060005b825181101561071e576106f48382815181106106e6576106e56111b8565b5b602002602001015133610b12565b828281518110610707576107066111b8565b5b6020026020010181815250508060010190506106c7565b508060069080519060200190610735929190610cf3565b503373ffffffffffffffffffffffffffffffffffffffff167ff29eb7753999773f8931d432bd17dfc5473e8560c770476b559a2df112617d96600660405161077d919061132f565b60405180910390a25050565b6000600254905090565b60008060009054906101000a900467ffffffffffffffff16905090565b60006107bb82610bd1565b90506107c681610941565b6003819055505050565b6060600680548060200260200160405190810160405280929190818152602001828054801561081e57602002820191906000526020600020905b81548152602001906001019080831161080a575b5050505050905090565b60006108356003546109de565b90506108418133610b12565b6001819055503373ffffffffffffffffffffffffffffffffffffffff167f958094500e56c659b01cdefb25c66c88f025c3c800f69b2a2141f8c73b30e05660015460405161088f9190610da2565b60405180910390a250565b6000606473ffffffffffffffffffffffffffffffffffffffff1663e4f36e106004808111156108cc576108cb611351565b5b60f81b846000015185602001516040518463ffffffff1660e01b81526004016108f79392919061145a565b6020604051808303816000875af1158015610916573d6000803e3d6000fd5b505050506040513d601f19601f8201168201806040525081019061093a91906114c4565b9050919050565b6000606473ffffffffffffffffffffffffffffffffffffffff1663c50c9c0260048081111561097357610972611351565b5b60f81b846040518363ffffffff1660e01b81526004016109949291906114f1565b6020604051808303816000875af11580156109b3573d6000803e3d6000fd5b505050506040513d601f19601f820116820180604052508101906109d791906114c4565b9050919050565b6000606473ffffffffffffffffffffffffffffffffffffffff1663d2c135e5600480811115610a1057610a0f611351565b5b60f81b846040518363ffffffff1660e01b8152600401610a319291906114f1565b6020604051808303816000875af1158015610a50573d6000803e3d6000fd5b505050506040513d601f19601f82011682018060405250810190610a7491906114c4565b9050919050565b6000606473ffffffffffffffffffffffffffffffffffffffff16638c5d0150610aa76004806000610c78565b85856040518463ffffffff1660e01b8152600401610ac793929190611555565b6020604051808303816000875af1158015610ae6573d6000803e3d6000fd5b505050506040513d601f19601f82011682018060405250810190610b0a91906114c4565b905092915050565b6000606473ffffffffffffffffffffffffffffffffffffffff16633c6f0e68600480811115610b4457610b43611351565b5b60f81b8585604051602001610b599190611606565b6040516020818303038152906040526040518463ffffffff1660e01b8152600401610b869392919061145a565b6020604051808303816000875af1158015610ba5573d6000803e3d6000fd5b505050506040513d601f19601f82011682018060405250810190610bc991906114c4565b905092915050565b6000606473ffffffffffffffffffffffffffffffffffffffff1663d9b60b60600480811115610c0357610c02611351565b5b60f81b8467ffffffffffffffff166040518363ffffffff1660e01b8152600401610c2e9291906114f1565b6020604051808303816000875af1158015610c4d573d6000803e3d6000fd5b505050506040513d601f19601f82011682018060405250810190610c7191906114c4565b9050919050565b6000816002811115610c8d57610c8c611351565b5b60ff166008846004811115610ca557610ca4611351565b5b61ffff16901b61ffff166010866004811115610cc457610cc3611351565b5b62ffffff16901b171760e81b90509392505050565b604051806040016040528060008152602001606081525090565b828054828255906000526020600020908101928215610d2f579160200282015b82811115610d2e578251825591602001919060010190610d13565b5b509050610d3c9190610d40565b5090565b5b80821115610d59576000816000905550600101610d41565b5090565b6000819050919050565b6000819050919050565b6000610d8c610d87610d8284610d5d565b610d67565b610d5d565b9050919050565b610d9c81610d71565b82525050565b6000602082019050610db76000830184610d93565b92915050565b600080fd5b600080fd5b600080fd5b600080fd5b600080fd5b60008083601f840112610dec57610deb610dc7565b5b8235905067ffffffffffffffff811115610e0957610e08610dcc565b5b602083019150836020820283011115610e2557610e24610dd1565b5b9250929050565b60008083601f840112610e4257610e41610dc7565b5b8235905067ffffffffffffffff811115610e5f57610e5e610dcc565b5b602083019150836020820283011115610e7b57610e7a610dd1565b5b9250929050565b60008060008060408587031215610e9c57610e9b610dbd565b5b600085013567ffffffffffffffff811115610eba57610eb9610dc2565b5b610ec687828801610dd6565b9450945050602085013567ffffffffffffffff811115610ee957610ee8610dc2565b5b610ef587828801610e2c565b925092505092959194509250565b610f0c81610d5d565b8114610f1757600080fd5b50565b600081359050610f2981610f03565b92915050565b60008083601f840112610f4557610f44610dc7565b5b8235905067ffffffffffffffff811115610f6257610f61610dcc565b5b602083019150836001820283011115610f7e57610f7d610dd1565b5b9250929050565b600080600060408486031215610f9e57610f9d610dbd565b5b6000610fac86828701610f1a565b935050602084013567ffffffffffffffff811115610fcd57610fcc610dc2565b5b610fd986828701610f2f565b92509250509250925092565b600060208284031215610ffb57610ffa610dbd565b5b600061100984828501610f1a565b91505092915050565b600067ffffffffffffffff82169050919050565b61102f81611012565b82525050565b600060208201905061104a6000830184611026565b92915050565b61105981611012565b811461106457600080fd5b50565b60008135905061107681611050565b92915050565b60006020828403121561109257611091610dbd565b5b60006110a084828501611067565b91505092915050565b600081519050919050565b600082825260208201905092915050565b6000819050602082019050919050565b6110de81610d71565b82525050565b60006110f083836110d5565b60208301905092915050565b6000602082019050919050565b6000611114826110a9565b61111e81856110b4565b9350611129836110c5565b8060005b8381101561115a57815161114188826110e4565b975061114c836110fc565b92505060018101905061112d565b5085935050505092915050565b600060208201905081810360008301526111818184611109565b905092915050565b7f4e487b7100000000000000000000000000000000000000000000000000000000600052604160045260246000fd5b7f4e487b7100000000000000000000000000000000000000000000000000000000600052603260045260246000fd5b600080fd5b600080fd5b600080fd5b60008083356001602003843603038112611213576112126111e7565b5b80840192508235915067ffffffffffffffff821115611235576112346111ec565b5b602083019250600182023603831315611251576112506111f1565b5b509250929050565b600081549050919050565b60008190508160005260206000209050919050565b60008160001c9050919050565b6000819050919050565b60006112a361129e83611279565b611286565b9050919050565b60006112b68254611290565b9050919050565b6000600182019050919050565b60006112d582611259565b6112df81856110b4565b93506112ea83611264565b8060005b83811015611322576112ff826112aa565b61130988826110e4565b9750611314836112bd565b9250506001810190506112ee565b5085935050505092915050565b6000602082019050818103600083015261134981846112ca565b905092915050565b7f4e487b7100000000000000000000000000000000000000000000000000000000600052602160045260246000fd5b60007fff0000000000000000000000000000000000000000000000000000000000000082169050919050565b6113b581611380565b82525050565b6113c481610d5d565b82525050565b600081519050919050565b600082825260208201905092915050565b60005b838110156114045780820151818401526020810190506113e9565b60008484015250505050565b6000601f19601f8301169050919050565b600061142c826113ca565b61143681856113d5565b93506114468185602086016113e6565b61144f81611410565b840191505092915050565b600060608201905061146f60008301866113ac565b61147c60208301856113bb565b818103604083015261148e8184611421565b9050949350505050565b6114a181610d5d565b81146114ac57600080fd5b50565b6000815190506114be81611498565b92915050565b6000602082840312156114da576114d9610dbd565b5b60006114e8848285016114af565b91505092915050565b600060408201905061150660008301856113ac565b61151360208301846113bb565b9392505050565b60007fffffff000000000000000000000000000000000000000000000000000000000082169050919050565b61154f8161151a565b82525050565b600060608201905061156a6000830186611546565b61157760208301856113bb565b61158460408301846113bb565b949350505050565b600073ffffffffffffffffffffffffffffffffffffffff82169050919050565b60006115b78261158c565b9050919050565b60008160601b9050919050565b60006115d6826115be565b9050919050565b60006115e8826115cb565b9050919050565b6116006115fb826115ac565b6115dd565b82525050565b600061161282846115ef565b6014820191508190509291505056fea2646970667358221220d395261a7719e2e038106ff468b8032856d9c9cb6626c4088066e6df00910a1b64736f6c63430008180033",
  "devdoc": {
    "kind": "dev",
    "methods": {},
    "version": 1
  },
  "userdoc": {
    "kind": "user",
    "methods": {},
    "version": 1
  },
  "storageLayout": {
    "storage": [
      {
        "astId": 4,
        "contract": "contracts/DataOnChain.sol:DataOnChain",
        "label": "clearValue",
        "offset": 0,
        "slot": "0",
        "type": "t_uint64"
      },
      {
        "astId": 7,
        "contract": "contracts/DataOnChain.sol:DataOnChain",
        "label": "ctUserSomeEncryptedValue",
        "offset": 0,
        "slot": "1",
        "type": "t_userDefinedValueType(ctUint64)501"
      },
      {
        "astId": 10,
        "contract": "contracts/DataOnChain.sol:DataOnChain",
        "label": "ctUserSomeEncryptedValueEncryptedInput",
        "offset": 0,
        "slot": "2",
        "type": "t_userDefinedValueType(ctUint64)501"
      },
      {
        "astId": 13,
        "contract": "contracts/DataOnChain.sol:DataOnChain",
        "label": "ctNetworkSomeEncryptedValue",
        "offset": 0,
        "slot": "3",
        "type": "t_userDefinedValueType(ctUint64)501"
      },
      {
        "astId": 16,
        "contract": "contracts/DataOnChain.sol:DataOnChain",
        "label": "ctNetworkSomeEncryptedValueEncryptedInput",
        "offset": 0,
        "slot": "4",
        "type": "t_userDefinedValueType(ctUint64)501"
      },
      {
        "astId": 19,
        "contract": "contracts/DataOnChain.sol:DataOnChain",
        "label": "ctUserArithmeticResult",
        "offset": 0,
        "slot": "5",
        "type": "t_userDefinedValueType(ctUint64)501"
      },
      {
        "astId": 23,
        "contract": "contracts/DataOnChain.sol:DataOnChain",
        "label": "ctUserSomeEncryptedStringEncryptedInput",
        "offset": 0,
        "slot": "6",
        "type": "t_array(t_userDefinedValueType(ctUint64)501)dyn_storage"
      },
      {
        "astId": 27,
        "contract": "contracts/DataOnChain.sol:DataOnChain",
        "label": "ctNetworkSomeEncryptedStringEncryptedInput",
        "offset": 0,
        "slot": "7",
        "type": "t_array(t_userDefinedValueType(ctUint64)501)dyn_storage"
      },
      {
        "astId": 31,
        "contract": "contracts/DataOnChain.sol:DataOnChain",
        "label": "ctUserSomeEncryptedStringValue",
        "offset": 0,
        "slot": "8",
        "type": "t_array(t_userDefinedValueType(ctUint64)501)dyn_storage"
      }
    ],
    "types": {
      "t_array(t_userDefinedValueType(ctUint64)501)dyn_storage": {
        "base": "t_userDefinedValueType(ctUint64)501",
        "encoding": "dynamic_array",
        "label": "ctUint64[]",
        "numberOfBytes": "32"
      },
      "t_uint64": {
        "encoding": "inplace",
        "label": "uint64",
        "numberOfBytes": "8"
      },
      "t_userDefinedValueType(ctUint64)501": {
        "encoding": "inplace",
        "label": "ctUint64",
        "numberOfBytes": "32"
      }
    }
  }
}